:020000040000fa
:080000004e0c0400000000009a
:020000040000fa
:10020000889fbe008a9fbe00010578000100e000c3
:100210000400350008003c000000e000200032002f
:100220000500370060001000e080180002003b006d
:1002300001f02c001a0037000004be006011b80065
:100240006b0920000982cf00020039000882cf002c
:100250000441b000694252000e00320008003b0029
:1002600082817100610164008904d1000884d30097
:100270008b05e8000442e800f9ff3a00050037006a
:100280000804440089844c008b05e9000442e9001d
:10029000fbff3a00090107000af0a70001f0a000e7
:1002a0004f05be004f04be000000060003f0a20090
:1002b000889fbe008a9fbe008c1f78002501070022
:1002c0002c0133006450e1004f0032006420e10053
:1002d0005200320003826c0007003b000905d00089
:1002e0000306d000820f54000c065d0002003900a6
:1002f00002003200890178000306780085825500eb
:1003000004003d000003fd008103fd008502ea00ba
:100310008b854200840f720002003b0060001000d9
:10032000e08018006011b8000005eb007a28e100b9
:100330000a00390006007800c75ddd00f707b2004b
:10034000878075002d003700828171000a017800d6
:10035000610560008180d1000080d3008502e90042
:10036000f9ff3b00060440008784480002003b0080
:1003700060041400e0841c000988a3000700320018
:100380008a81710082817100610164008904d10059
:100390000884d3008b05e800170037000978a30014
:1003a00013003a000b00e000130034008b05e90055
:1003b0000804440089844c000a4474000978a300ae
:1003c0000d003a000b00e000070034008b05e90047
:1003d0000804440089844c0001003a000b0020000e
:1003e0000978a300f7ff32000001eb00020037009c
:1003f000828171000a017800b00007000cf0a700ac
:1004000001f0a000e40037006420e10002003a009f
:10041000838f6c00e40033000801be000200be00c0
:10042000dd003700889fbe008a9fbe008c1f7800c9
:10043000c8000700cf00330003866c006450e10061
:100440002e0032006420e100330032006150e100f0
:100450002f0032006120e100310032008585550017
:10046000eb07b00009002000080420000500370059
:100470000804440089844c000a003100060343004c
:1004800087834b000001530081815b00f8ff33003c
:100490000203be000800a0000804440089844c0048
:1004a000f6ff3900c639dd00830173000100320018
:1004b000130020008904d1000884d3000998a30008
:1004c000050032000800a7000300a0008904d10045
:1004d0000884d3008b05e8008904d1000884d30088
:1004e0000001eb000281d2007400070001f0a100be
:1004f0000cf0a70001f0a000a70037006420e10085
:10050000a90032000801be000200be00f7ff37005c
:100510006120e100a40032006000b800f3ff370062
:100520000000200001f82700f0ff3700889fbe0080
:100530008a9fbe008c1f7800860007008d00330064
:1005400003866c006450e100240032006420e10066
:10055000270032006150e100220032006120e100fa
:10056000210032008b854200eb07b1000134b80056
:10057000003ab8000804420089844a00013ab800f1
:100580000030b8008880400009014a0004003300b0
:100590000000400081804800020149008b05e9000d
:1005a000c909dd0083017000010032001300200042
:1005b000c814de004814dd004709de001200b20056
:1005c000c808de00088470003c00070001f0a100ac
:1005d0000cf0a70001f0a0006f0037006120e100df
:1005e000710032000801be000200be00f7ff3700b4
:1005f0006150e100fcff3a006b003700f4ff2f0070
:100600006c0037000001be00850007000470a700e1
:1006100003f0a10003f8a30013003a006509b1003c
:1006200010003200090035006928e10002003500a1
:100630000100280000000500000040008180480003
:100640008502e900fcff3a0000000600f88f420036
:10065000050035008100d1000080d3008502e8004c
:10066000fcff3a00000006008000eb0000000500df
:100670006022b800060220000000d0008180d20075
:100680000482d2008582d2000000a0000202520043
:1006900083825a00030031000202420083824a0032
:1006a0000000a1000603e900f3ff3a000000060085
:1006b000efff07000400be000000060081002000dc
:1006c000618055000b003d000b00200061fe2f00f3
:1006d0000100e1001d0034008281710061016400ad
:1006e0008904d1000884d3000000e800faff3a0032
:1006f00071002000610064000300700002006000cf
:100700000900320061044400e0844c000988a5001f
:10071000050032008b05e8006808e10002003a009d
:100720008904d1000884d300f20f20000258e100b0
:1007300005003d00c75ddd00f907b2008980750046
:1007400008007800000006000bf827008b007800f6
:10075000000005000004be00310007000003be00d9
:100760000405be000200be002d000700844f750086
:10077000000006000200be006450e10005003600e3
:100780006420e100020036000968a30001003a007d
:100790000800be000160a0004f0678004f05be00b3
:1007a0004f04be0000000600f0ff2f00f1ff2700fd
:1007b000f9ff3700889fbe008a9fbe00841f780023
:1007c000e4ff07004f00780011003300f0ff2f0016
:1007d000838f6c0006003b00040565000a00a7003b
:1007e0000800370009f0a6001000200008003700bc
:1007f000820f5400838f5c0003003900100020003a
:1008000001003e000000200009f0a7000000ea00ff
:100810004f05be004f04be000000e00000000600cf
:10082000c70ade00f107b200f50fb200080032007f
:10083000e1cf4200020032000170a0002400050058
:10084000810f70000100320004080500440005001b
:10085000810f700002003a00140005008502e900d3
:100860000000400081c04800fcff3b000170a00078
:10087000240005000200fa00004f78000000eb00a1
:10088000001588000000eb001015880020002000f3
:10089000201588000000eb00301588009e4078008d
:1008a0006fc060006f416000612a200091407800b5
:1008b00000cfb30000c0600002407000a6e2b700a5
:1008c0000000eb00501588000000eb004015880088
:1008d000a1e2a8000080fa00000006000200fa0071
:1008e0000000eb00000f7800a022a80040012000cb
:1008f00093030700a022a900a0c2bf0061406000ce
:100900000004e000fcff320000148000000f7800bb
:10091000a002a9001e0078000080fa000000060076
:100920000400fa00000f780021479800112a2000e7
:1009300091407800c0cfb30000c06000a1e2b700d2
:10094000a0c2bf007f40600001c6b300014070003c
:10095000a0e2b700a042a800a062a800212a2000bf
:100960009140780030ccb30000c060000024a000ab
:10097000a2e2b7002e409000634060006341600037
:10098000312a200091407800c0cfb30000c0600041
:1009900002407000a3e2b700512a20009140780085
:1009a00000ceb30000c06000a5e2b700412a2000dd
:1009b0009140780000ccb30000c060000014a0009b
:1009c000a4e2b7000000eb00401588001e0078008c
:1009d000301588000000eb0050158800a1e2a80047
:1009e0000080fa00000006000400fa00000f780002
:1009f00021479800112a200091407800c0cfb30011
:100a000000c06000a1e2b700012a200091407800f8
:100a100000ceb30000c07000a0e2b700a042a80062
:100a2000a062a800212a20009140780030ccb300b9
:100a300000c060000024a000a2e2b7002e40900099
:100a40006340600063416000312a200091407800db
:100a5000c0cfb30000c0600002407000a3e2b70046
:100a6000512a20009140780000ceb30000c0600001
:100a7000a5e2b700412a20009140780000ccb300e5
:100a800000c060000024a000a4e2b7000000eb005a
:100a9000401588001e007800301588000000eb002b
:100aa000501588008560a9008d60a800a1e2a8000b
:100ab0000080fa00000006001400fa00881f780089
:100ac0009d010700fb01070031c0b3000000eb00ef
:100ad000c5ff0700a822a800c602a8000000eb007e
:100ae000c0168800010c2000c0bc280014020700ba
:100af0004109200010be280011020700410d20000e
:100b000060bf28000e020700803e20000c03070093
:100b1000004180000000e00004003a0001082000cd
:100b2000c0c0280006020700060037000041800010
:100b3000e10f500003003a000108200010c2280015
:100b4000ff010700304180000000e80030418800cc
:100b50003141800010032000808f50000a003600d1
:100b600000418000e10f500003003a000000eb005c
:100b7000004188000200370010002000004188007a
:100b80000000eb0030418800384080006140b9002f
:100b90009bfd0700000f9800110f98000800e0006f
:100ba00007003d0002002000037824000e0890009a
:100bb0009e089000befd0700000f9800110f9800de
:100bc0000e0890009e08900002002c00f3472400bd
:100bd00014fe070002002000832c2c0053fe0700a7
:100be00002002000832c2400b1fd07007040880023
:100bf00081408800584080006140b90080fd0700b6
:100c000060079800710798000800e00007003d00a9
:100c100002002000037824006e009000fe00900087
:100c2000a3fd070060079800710798006e00900010
:100c3000fe00900002002c00f3472400f9fd07009d
:100c400002002000832c2c0038fe07000200200048
:100c5000832c240096fd070090408800a140880066
:100c6000584080006140b90065fd070040079800ca
:100c7000510798000800e00007003d000200200036
:100c8000037824004e009000de00900088fd0700ed
:100c900040079800510798004e009000de00900039
:100ca00002002c00f3472400defd070002002000b4
:100cb000832c2c001dfe070002002000832c240042
:100cc0007bfd0700b0408800c1408800684080007c
:100cd0006140b9004afd07002007980031079800dd
:100ce0000800e00007003d00020020000378240017
:100cf0002e009000be0090006dfd070020079800b8
:100d0000310798002e009000be00900002002c00d9
:100d1000f3472400c3fd070002002000832c2c00b1
:100d200002fe070002002000832c240060fd070063
:100d3000d0408800e1408800704080008140800001
:100d40000041eb0032479800020020008324240079
:100d50002afe07000000e00001003d00020037000d
:100d600010c0b300304798003e4090000004a2003d
:100d70000004e00033003a0090408000a140800071
:100d80000041eb0022479800020020008324240049
:100d90001afe07000000e00001003d0002003700dd
:100da00010c0b300204798002e4090000004a2001d
:100db0000004e00023003a00b0408000c140800001
:100dc0000041eb0012479800020020008324240019
:100dd0000afe07000000e00001003d0002003700ad
:100de00010c0b300104798001e4090000004a200fd
:100df0000004e00013003a00d0408000e140800091
:100e00000041eb00024f7800020020008324240000
:100e1000fafd07000000e00001003d00020037007d
:100e200010c0b300004f78001e4078000004a200fc
:100e30000004e00003003a00200020001041880078
:100e40000200370010002000104188007040800030
:100e500081408000ebfd070033c0b30042cdb300fa
:100e60006101070090408000a1408000e5fd07007f
:100e700033c0b30092cdb3005b010700b0408000e7
:100e8000c1408000dffd070033c0b300f2cdb300e6
:100e900055010700d0408000e1408000d9fd0700e7
:100ea00033c0b30042ceb3004f01070021418000a0
:100eb00010418000808f50001400320010418000eb
:100ec0002041880010418000e10f500008003a00e6
:100ed000f00f2000e0168800710c200060c328008d
:100ee00017010700803e20001502070007003700a9
:100ef0000000eb00e0168800710c200020c42800e0
:100f00000f010700803e20000d0207004006200070
:100f10000b020700fefe3700801f78003400f80047
:100f200000c0b300a00188000000fa008560a9009d
:100f30001014800030408800201480004040880059
:100f40003014800050408800001480006040880009
:100f50000080fa003400f9004f00780000400600dd
:100f60000200fa00004f78001e80fb006100600064
:100f700061416000612d200091407800e0cfb30016
:100f800000c0600002407000d6e2b7001e80fb0087
:100f9000620060000080d100614060004601dd0019
:100fa000212e200091407800f0cbb30000c06000fb
:100fb00002407000e2e2b7001e80fb0064006000a7
:100fc0004280de00614060004301dd00212e2000f0
:100fd0009140780070cfb30000c060000240700004
:100fe000e2e2b7001e80fb00680060004380de0084
:100ff000614060004201dd00212e20009140780018
:10100000b0cfb30000c0600002407000e2e2b70061
:101010001e80fb00700060004480de0061406000c4
:101020004501dd00212e200091407800f0cdb30075
:1010300000c0600002407000e2e2b7009e80fb004a
:1010400000022000008060004580de0061406000fa
:101050004401dd00212e200091407800f0ceb30045
:1010600000c0600002407000e2e2b7009e80fb001a
:1010700000042000008060004680de0061406000c7
:101080000041d000212e200091407800d0cfb30045
:1010900000c0600002407000e2e2b7009e80fb00ea
:1010a00000082000008060004780de006141600091
:1010b000212e200091407800e0cfb30000c06000f6
:1010c00002407000e2e2b7000080fa000000060073
:1010d0000200fa00004f78004001200035000700b0
:1010e000d662a9001e4078009dff0700d642a800e6
:1010f000500020002f000700d642a9000080fa000f
:10110000000006000200fa00004f780040012000b5
:1011100028000700d662a8001e40780090ff070054
:10112000d642a8005000200022000700d642a900a5
:101130000080fa00000006000000fa00800c200089
:101140001c000700d202a900d242a900d262a90065
:10115000de02a900de22a900de42a900de62a900ab
:10116000de82a900dea2a900dec2a90080c3b3000e
:10117000d7ff0700f0c0b300d5ff070010c0b300d1
:10118000d3ff0700800c20000a00070010c0b30046
:10119000cfff0700800c20000600070000c8b30046
:1011a000cbff070040012000020007000080fa008a
:1011b000000006000600fa00000f78001e0078000c
:1011c000100798001e0090000000e0000d003200a3
:1011d0000000eb00200798002e0090009e0f5000aa
:1011e000040031002e0090000000e8002007980065
:1011f000f9ff37001e0090000000e900100798007a
:10120000f0ff37000080fa00000006000000fa003e
:1012100010002000aeff0700803e200048010700bc
:101220000080fa00000006000000fa002000200004
:10123000a7ff07000080fa00000006000000fa0087
:1012400040002000a2ff07000080fa000000060016
:101250000000fa00600020009dff07000080fa00f7
:10126000000006000000fa005000200098ff070070
:101270000080fa00000006000000fa007000200064
:1012800093ff07000080fa00000006000000fa004b
:10129000800020008eff07000080fa00000006009a
:1012a0000000fa009000200089ff07000080fa008b
:1012b000000006000000fa00c000200084ff0700c4
:1012c0000080fa00000006000000fa00e0002000a4
:1012d0007fff07000080fa00000006000000fa000f
:1012e000f00020007aff07000080fa0000000600ee
:1012f0000000fa00c001200075ff07000080fa001e
:10130000000006000000fa008001200070ff0700c6
:101310000080fa00000006000000fa0040012000f2
:101320006bff07000080fa00000006000000fa00d2
:101330000001200066ff07000080fa0000000600a0
:101340000400fa00000f7800110798001e007800d2
:101350001004e000220032001e0090005cff070035
:101360001e0078001000fb0066ff07001e0fe8005b
:101370001e0090000000e800100798009e009000fa
:1013800040092000808f500002003a00000c20002d
:10139000100798009e009000400d2000808f5000a4
:1013a00002003a0040092000100798009e009000bb
:1013b000800a2000808f500002003a00400d20007b
:1013c000100798009e009000800e2000808f500033
:1013d000deff3a000008200010079800dbff37000e
:1013e0000080fa00000006001600fa00008fbe0020
:1013f0004247980053479800100020000100200049
:1014000050079800610798000040eb00604f98007b
:101410006e4890008080fb005e4090000080fb00e2
:101420000000e900808f500012003d005e00900037
:10143000ee009000a20020000202b8000001eb00c4
:101440000283b9000501780006014100a3002000d5
:101450000388b90000014100820278005407980017
:10146000650798006e4890000040e800604f9800c3
:10147000e7ff37000040eb00604f9800ee48900017
:101480005e40900080cf50001e0031005e01900051
:10149000ee0190001e00be0075fc070030079800aa
:1014a00041079800f00047006e4890000080fb0064
:1014b000810040003e009000228420000200400095
:1014c000904878001e00be005e019000ee01900082
:1014d00077fc0700008fbe005e009000ee009000d9
:1014e000a20020000300200061fc070050079800c4
:1014f000610798006e4890000040e800604f980037
:10150000deff37004e4090000080fb00f0fe070039
:101510000040eb00604f9800f00047006e489000dc
:101520000080fb008100400000c3b300914f100019
:101530000d003a006e4890008080fb005e409000f5
:101540000080fb000000e900808f500006003d0095
:1015500000022000ebfe07006e4890000040e8000b
:10156000604f9800ecff370000000000ee4890004c
:101570005e40900080cf50000a003100f00047002c
:101580006e4890000080fb00010040001080fb00ce
:10159000dcfe07006e4890000040e800604f9800b5
:1015a000f2ff37000080fa00000006001600fa0083
:1015b000008fbe004247980053479800100020005b
:1015c0000100200050079800610798000040eb00e0
:1015d000604f98006e4890008080fb005e40900055
:1015e0000080fb000000e900808f500012003d00e9
:1015f0005e009000ee009000a20020000202b80001
:101600000001eb000283b9000501780006014100ea
:10161000a30020000388b900000141008202780085
:1016200054079800650798006e4890000040e80055
:10163000604f9800e7ff37000040eb00604f9800d4
:10164000ee4890005e40900080cf50001e003100b8
:101650005e019000ee0190001e00be0004fc070039
:101660003007980041079800f00047006e4890004e
:101670000080fb00810040003e009000228420009a
:1016800002004000904878001e00be005e019000fd
:10169000ee01900006fc0700008fbe005e00900087
:1016a000ee009000a200200003002000f0fb0700e5
:1016b00050079800610798006e4890000040e800cd
:1016c000604f9800deff37004e4090000080fb0026
:1016d0007ffe07000040eb00604f9800ee4890004e
:1016e0005e40900080cf50000a003100f0004700bb
:1016f0006e4890000080fb00010040001080fb005d
:1017000080fe07006e4890000040e800604f98009f
:10171000f2ff37000080fa00000006000400fa0023
:10172000004f7800110798001e00900068fe070027
:101730001e00fb0073fe07000080fa000000060098
:101740000600fa00000f78001e00780010079800cd
:101750001e0090000000e0000d0032000000eb00d1
:10176000200798002e0090009e0f500004003100ca
:101770002e0090000000e80020079800f9ff3700d5
:101780001e0090000000e90010079800f0ff3700ed
:081790000080fa0000000600d1
:020000040000fa
:10000800000d0000000d0000000d0000000d0000b4
:10001800000d0000000d0000000d0000000d0000a4
:10002800000d0000000d0000000d0000000d000094
:10003800000d0000000d0000000d0000000d000084
:10004800000d0000000d0000000d00008c070000ee
:10005800000d0000000d0000000d0000000d000064
:10006800000d0000000d0000000d0000000d000054
:10007800000d0000000d0000000d0000000d000044
:10008800000d0000000d0000000d0000000d000034
:10009800000d0000000d0000000d0000000d000024
:1000a800000d0000000d0000000d0000000d000014
:1000b800000d0000000d0000000d0000000d000004
:1000c800000d0000000d0000000d0000000d0000f4
:1000d800000d0000000d0000000d0000000d0000e4
:1000e800000d0000000d0000000d0000000d0000d4
:0800f800000d0000000d0000e6
:020000040000fa
:10010800000d0000000d0000000d0000000d0000b3
:10011800000d0000000d0000000d0000000d0000a3
:10012800000d0000000d0000000d0000000d000093
:10013800000d0000000d0000000d0000000d000083
:10014800000d0000000d0000000d00008c070000ed
:10015800000d0000000d0000000d0000000d000063
:10016800000d0000000d0000000d0000000d000053
:10017800000d0000000d0000000d0000000d000043
:10018800000d0000000d0000000d0000000d000033
:10019800000d0000000d0000000d0000000d000023
:1001a800000d0000000d0000000d0000000d000013
:1001b800000d0000000d0000000d0000000d000003
:1001c800000d0000000d0000000d0000000d0000f3
:1001d800000d0000000d0000000d0000000d0000e3
:1001e800000d0000000d0000000d0000000d0000d3
:0801f800000d0000000d0000e5
:020000040000fa
:101798005354000041540000555300003a20000003
:1017a8002020000020200000202000002020000031
:1017b800202000002020000000530000454e0000bb
:1017c80031200000534500004e3200002020000068
:1017d800534500004e33000020530000454e0000e2
:1017e80034000000202000002025000020200000f8
:1017f80020200000252000002020000020200000dc
:1018080025200000202000002025000020000000e6
:10181800652d000049520000524900004741000070
:10182800544900004f4e00002020000020200000f6
:1018380020200000202000000020000020200000c0
:10184800202000002020000020570000454c000008
:10185800434f00004d45000053200000594f000041
:1018680055000000496e000020500000726f000013
:10187800677200006573000073000000436f00008a
:101888006d7000006c650000746500006420000045
:04189800200000002c
:020000040000fa
:10189c004f85200080ff2000000188000000000020
:1018ac00050007000c0007005c05020000000000aa
:1018bc000040da000000fe004440a9004010200067
:1018cc000000e0000300320000002000a0018800ae
:1018dc004440a80000000600e0cc200001002000dd
:1018ec001600370062004000e0804800910188003b
:1018fc009001ba0062004000e0804800910188002d
:10190c009002ba0062004000e08048000002eb0048
:10191c006028e10005003a008301e900070033006c
:10192c00038009000059eb00040037006128e10036
:10193c00010032000082eb000500070091018800d5
:10194c001001ba000200e000e6ff3a0000000500ba
:10195c00910188008002780062004000e08048001d
:10196c003559ba008301e900080032002559ba0044
:10197c008301e900050032000400e000f4ff3200ae
:10198c0015d9ba008301e900f1ff3a000000060006
:020000040000fa
:10199c00280800001a00000002000000652d490014
:1019ac005252490047415400494f4e0020574500c0
:1019bc004c434f004d45530020594f00550000003b
:1019cc000008000028000000000000004208000091
:1019dc0012000000020000003031320033343500b8
:1019ec003637380039414200434445004600000078
:0419fc0000000000e7
:020000040000fa
:041a00000000fe00e4
:00000001FF
